{
  "_format": "hh-sol-artifact-1",
  "contractName": "ERC20CappedBurnableToken",
  "sourceName": "contracts/ERC20CappedBurnableToken.sol",
  "abi": [
    {
      "inputs": [
        {
          "internalType": "string",
          "name": "name",
          "type": "string"
        },
        {
          "internalType": "string",
          "name": "symbol",
          "type": "string"
        },
        {
          "internalType": "uint256",
          "name": "cap",
          "type": "uint256"
        },
        {
          "internalType": "uint256",
          "name": "reward",
          "type": "uint256"
        },
        {
          "internalType": "uint256",
          "name": "init_supply",
          "type": "uint256"
        }
      ],
      "stateMutability": "nonpayable",
      "type": "constructor"
    },
    {
      "anonymous": false,
      "inputs": [
        {
          "indexed": true,
          "internalType": "address",
          "name": "owner",
          "type": "address"
        },
        {
          "indexed": true,
          "internalType": "address",
          "name": "spender",
          "type": "address"
        },
        {
          "indexed": false,
          "internalType": "uint256",
          "name": "value",
          "type": "uint256"
        }
      ],
      "name": "Approval",
      "type": "event"
    },
    {
      "anonymous": false,
      "inputs": [
        {
          "indexed": true,
          "internalType": "address",
          "name": "from",
          "type": "address"
        },
        {
          "indexed": true,
          "internalType": "address",
          "name": "to",
          "type": "address"
        },
        {
          "indexed": false,
          "internalType": "uint256",
          "name": "value",
          "type": "uint256"
        }
      ],
      "name": "Transfer",
      "type": "event"
    },
    {
      "inputs": [
        {
          "internalType": "address",
          "name": "owner",
          "type": "address"
        },
        {
          "internalType": "address",
          "name": "spender",
          "type": "address"
        }
      ],
      "name": "allowance",
      "outputs": [
        {
          "internalType": "uint256",
          "name": "",
          "type": "uint256"
        }
      ],
      "stateMutability": "view",
      "type": "function"
    },
    {
      "inputs": [
        {
          "internalType": "address",
          "name": "spender",
          "type": "address"
        },
        {
          "internalType": "uint256",
          "name": "amount",
          "type": "uint256"
        }
      ],
      "name": "approve",
      "outputs": [
        {
          "internalType": "bool",
          "name": "",
          "type": "bool"
        }
      ],
      "stateMutability": "nonpayable",
      "type": "function"
    },
    {
      "inputs": [
        {
          "internalType": "address",
          "name": "account",
          "type": "address"
        }
      ],
      "name": "balanceOf",
      "outputs": [
        {
          "internalType": "uint256",
          "name": "",
          "type": "uint256"
        }
      ],
      "stateMutability": "view",
      "type": "function"
    },
    {
      "inputs": [],
      "name": "blockReward",
      "outputs": [
        {
          "internalType": "uint256",
          "name": "",
          "type": "uint256"
        }
      ],
      "stateMutability": "view",
      "type": "function"
    },
    {
      "inputs": [
        {
          "internalType": "uint256",
          "name": "amount",
          "type": "uint256"
        }
      ],
      "name": "burn",
      "outputs": [],
      "stateMutability": "nonpayable",
      "type": "function"
    },
    {
      "inputs": [
        {
          "internalType": "address",
          "name": "account",
          "type": "address"
        },
        {
          "internalType": "uint256",
          "name": "amount",
          "type": "uint256"
        }
      ],
      "name": "burnFrom",
      "outputs": [],
      "stateMutability": "nonpayable",
      "type": "function"
    },
    {
      "inputs": [],
      "name": "cap",
      "outputs": [
        {
          "internalType": "uint256",
          "name": "",
          "type": "uint256"
        }
      ],
      "stateMutability": "view",
      "type": "function"
    },
    {
      "inputs": [],
      "name": "decimals",
      "outputs": [
        {
          "internalType": "uint8",
          "name": "",
          "type": "uint8"
        }
      ],
      "stateMutability": "view",
      "type": "function"
    },
    {
      "inputs": [
        {
          "internalType": "address",
          "name": "spender",
          "type": "address"
        },
        {
          "internalType": "uint256",
          "name": "subtractedValue",
          "type": "uint256"
        }
      ],
      "name": "decreaseAllowance",
      "outputs": [
        {
          "internalType": "bool",
          "name": "",
          "type": "bool"
        }
      ],
      "stateMutability": "nonpayable",
      "type": "function"
    },
    {
      "inputs": [],
      "name": "destroy",
      "outputs": [],
      "stateMutability": "nonpayable",
      "type": "function"
    },
    {
      "inputs": [
        {
          "internalType": "address",
          "name": "spender",
          "type": "address"
        },
        {
          "internalType": "uint256",
          "name": "addedValue",
          "type": "uint256"
        }
      ],
      "name": "increaseAllowance",
      "outputs": [
        {
          "internalType": "bool",
          "name": "",
          "type": "bool"
        }
      ],
      "stateMutability": "nonpayable",
      "type": "function"
    },
    {
      "inputs": [],
      "name": "name",
      "outputs": [
        {
          "internalType": "string",
          "name": "",
          "type": "string"
        }
      ],
      "stateMutability": "view",
      "type": "function"
    },
    {
      "inputs": [],
      "name": "owner",
      "outputs": [
        {
          "internalType": "address payable",
          "name": "",
          "type": "address"
        }
      ],
      "stateMutability": "view",
      "type": "function"
    },
    {
      "inputs": [
        {
          "internalType": "uint256",
          "name": "reward",
          "type": "uint256"
        }
      ],
      "name": "setBlockReward",
      "outputs": [],
      "stateMutability": "nonpayable",
      "type": "function"
    },
    {
      "inputs": [],
      "name": "symbol",
      "outputs": [
        {
          "internalType": "string",
          "name": "",
          "type": "string"
        }
      ],
      "stateMutability": "view",
      "type": "function"
    },
    {
      "inputs": [],
      "name": "totalSupply",
      "outputs": [
        {
          "internalType": "uint256",
          "name": "",
          "type": "uint256"
        }
      ],
      "stateMutability": "view",
      "type": "function"
    },
    {
      "inputs": [
        {
          "internalType": "address",
          "name": "to",
          "type": "address"
        },
        {
          "internalType": "uint256",
          "name": "amount",
          "type": "uint256"
        }
      ],
      "name": "transfer",
      "outputs": [
        {
          "internalType": "bool",
          "name": "",
          "type": "bool"
        }
      ],
      "stateMutability": "nonpayable",
      "type": "function"
    },
    {
      "inputs": [
        {
          "internalType": "address",
          "name": "from",
          "type": "address"
        },
        {
          "internalType": "address",
          "name": "to",
          "type": "address"
        },
        {
          "internalType": "uint256",
          "name": "amount",
          "type": "uint256"
        }
      ],
      "name": "transferFrom",
      "outputs": [
        {
          "internalType": "bool",
          "name": "",
          "type": "bool"
        }
      ],
      "stateMutability": "nonpayable",
      "type": "function"
    }
  ],
  "bytecode": "0x60a06040523480156200001157600080fd5b5060405162002e4f38038062002e4f833981810160405281019062000037919062000747565b62000047620001b460201b60201c565b600a6200005591906200099d565b83620000629190620009ee565b8585816003908162000075919062000c7a565b50806004908162000087919062000c7a565b50505060008111620000d0576040517f08c379a0000000000000000000000000000000000000000000000000000000008152600401620000c79062000dc2565b60405180910390fd5b80608081815250505033600560006101000a81548173ffffffffffffffffffffffffffffffffffffffff021916908373ffffffffffffffffffffffffffffffffffffffff16021790555062000178600560009054906101000a900473ffffffffffffffffffffffffffffffffffffffff1662000151620001b460201b60201c565b600a6200015f91906200099d565b836200016c9190620009ee565b620001bd60201b60201c565b62000188620001b460201b60201c565b600a6200019691906200099d565b82620001a39190620009ee565b600681905550505050505062000f31565b60006012905090565b620001cd6200024460201b60201c565b81620001de6200024e60201b60201c565b620001ea919062000de4565b11156200022e576040517f08c379a0000000000000000000000000000000000000000000000000000000008152600401620002259062000e6f565b60405180910390fd5b6200024082826200025860201b60201c565b5050565b6000608051905090565b6000600254905090565b620002686200024460201b60201c565b81620002796200024e60201b60201c565b62000285919062000de4565b1115620002c9576040517f08c379a0000000000000000000000000000000000000000000000000000000008152600401620002c09062000e6f565b60405180910390fd5b620002db8282620002df60201b60201c565b5050565b600073ffffffffffffffffffffffffffffffffffffffff168273ffffffffffffffffffffffffffffffffffffffff160362000351576040517f08c379a0000000000000000000000000000000000000000000000000000000008152600401620003489062000ee1565b60405180910390fd5b62000365600083836200044c60201b60201c565b806002600082825462000379919062000de4565b92505081905550806000808473ffffffffffffffffffffffffffffffffffffffff1673ffffffffffffffffffffffffffffffffffffffff168152602001908152602001600020600082825401925050819055508173ffffffffffffffffffffffffffffffffffffffff16600073ffffffffffffffffffffffffffffffffffffffff167fddf252ad1be2c89b69c2b068fc378daa952ba7f163c4a11628f55a4df523b3ef836040516200042c919062000f14565b60405180910390a362000448600083836200055960201b60201c565b5050565b600073ffffffffffffffffffffffffffffffffffffffff168373ffffffffffffffffffffffffffffffffffffffff1614158015620004b657504173ffffffffffffffffffffffffffffffffffffffff168273ffffffffffffffffffffffffffffffffffffffff1614155b8015620004f05750600073ffffffffffffffffffffffffffffffffffffffff164173ffffffffffffffffffffffffffffffffffffffff1614155b80156200052a5750620005086200024460201b60201c565b6006546200051b6200024e60201b60201c565b62000527919062000de4565b11155b156200054157620005406200055e60201b60201c565b5b620005548383836200057460201b60201c565b505050565b505050565b6200057241600654620001bd60201b60201c565b565b505050565b6000604051905090565b600080fd5b600080fd5b600080fd5b600080fd5b6000601f19601f8301169050919050565b7f4e487b7100000000000000000000000000000000000000000000000000000000600052604160045260246000fd5b620005e28262000597565b810181811067ffffffffffffffff82111715620006045762000603620005a8565b5b80604052505050565b60006200061962000579565b9050620006278282620005d7565b919050565b600067ffffffffffffffff8211156200064a5762000649620005a8565b5b620006558262000597565b9050602081019050919050565b60005b838110156200068257808201518184015260208101905062000665565b60008484015250505050565b6000620006a56200069f846200062c565b6200060d565b905082815260208101848484011115620006c457620006c362000592565b5b620006d184828562000662565b509392505050565b600082601f830112620006f157620006f06200058d565b5b8151620007038482602086016200068e565b91505092915050565b6000819050919050565b62000721816200070c565b81146200072d57600080fd5b50565b600081519050620007418162000716565b92915050565b600080600080600060a0868803121562000766576200076562000583565b5b600086015167ffffffffffffffff81111562000787576200078662000588565b5b6200079588828901620006d9565b955050602086015167ffffffffffffffff811115620007b957620007b862000588565b5b620007c788828901620006d9565b9450506040620007da8882890162000730565b9350506060620007ed8882890162000730565b9250506080620008008882890162000730565b9150509295509295909350565b7f4e487b7100000000000000000000000000000000000000000000000000000000600052601160045260246000fd5b60008160011c9050919050565b6000808291508390505b60018511156200089b578086048111156200087357620008726200080d565b5b6001851615620008835780820291505b808102905062000893856200083c565b945062000853565b94509492505050565b600082620008b6576001905062000989565b81620008c6576000905062000989565b8160018114620008df5760028114620008ea5762000920565b600191505062000989565b60ff841115620008ff57620008fe6200080d565b5b8360020a9150848211156200091957620009186200080d565b5b5062000989565b5060208310610133831016604e8410600b84101617156200095a5782820a9050838111156200095457620009536200080d565b5b62000989565b62000969848484600162000849565b925090508184048111156200098357620009826200080d565b5b81810290505b9392505050565b600060ff82169050919050565b6000620009aa826200070c565b9150620009b78362000990565b9250620009e67fffffffffffffffffffffffffffffffffffffffffffffffffffffffffffffffff8484620008a4565b905092915050565b6000620009fb826200070c565b915062000a08836200070c565b925082820262000a18816200070c565b9150828204841483151762000a325762000a316200080d565b5b5092915050565b600081519050919050565b7f4e487b7100000000000000000000000000000000000000000000000000000000600052602260045260246000fd5b6000600282049050600182168062000a8c57607f821691505b60208210810362000aa25762000aa162000a44565b5b50919050565b60008190508160005260206000209050919050565b60006020601f8301049050919050565b600082821b905092915050565b60006008830262000b0c7fffffffffffffffffffffffffffffffffffffffffffffffffffffffffffffffff8262000acd565b62000b18868362000acd565b95508019841693508086168417925050509392505050565b6000819050919050565b600062000b5b62000b5562000b4f846200070c565b62000b30565b6200070c565b9050919050565b6000819050919050565b62000b778362000b3a565b62000b8f62000b868262000b62565b84845462000ada565b825550505050565b600090565b62000ba662000b97565b62000bb381848462000b6c565b505050565b5b8181101562000bdb5762000bcf60008262000b9c565b60018101905062000bb9565b5050565b601f82111562000c2a5762000bf48162000aa8565b62000bff8462000abd565b8101602085101562000c0f578190505b62000c2762000c1e8562000abd565b83018262000bb8565b50505b505050565b600082821c905092915050565b600062000c4f6000198460080262000c2f565b1980831691505092915050565b600062000c6a838362000c3c565b9150826002028217905092915050565b62000c858262000a39565b67ffffffffffffffff81111562000ca15762000ca0620005a8565b5b62000cad825462000a73565b62000cba82828562000bdf565b600060209050601f83116001811462000cf2576000841562000cdd578287015190505b62000ce9858262000c5c565b86555062000d59565b601f19841662000d028662000aa8565b60005b8281101562000d2c5784890151825560018201915060208501945060208101905062000d05565b8683101562000d4c578489015162000d48601f89168262000c3c565b8355505b6001600288020188555050505b505050505050565b600082825260208201905092915050565b7f45524332304361707065643a2063617020697320300000000000000000000000600082015250565b600062000daa60158362000d61565b915062000db78262000d72565b602082019050919050565b6000602082019050818103600083015262000ddd8162000d9b565b9050919050565b600062000df1826200070c565b915062000dfe836200070c565b925082820190508082111562000e195762000e186200080d565b5b92915050565b7f45524332304361707065643a2063617020657863656564656400000000000000600082015250565b600062000e5760198362000d61565b915062000e648262000e1f565b602082019050919050565b6000602082019050818103600083015262000e8a8162000e48565b9050919050565b7f45524332303a206d696e7420746f20746865207a65726f206164647265737300600082015250565b600062000ec9601f8362000d61565b915062000ed68262000e91565b602082019050919050565b6000602082019050818103600083015262000efc8162000eba565b9050919050565b62000f0e816200070c565b82525050565b600060208201905062000f2b600083018462000f03565b92915050565b608051611f0262000f4d60003960006105540152611f026000f3fe608060405234801561001057600080fd5b50600436106101165760003560e01c806342966c68116100a25780638da5cb5b116100715780638da5cb5b146102cf57806395d89b41146102ed578063a457c2d71461030b578063a9059cbb1461033b578063dd62ed3e1461036b57610116565b806342966c681461025d57806370a082311461027957806379cc6790146102a957806383197ef0146102c557610116565b80631a18e707116100e95780631a18e707146101a557806323b872dd146101c1578063313ce567146101f1578063355274ea1461020f578063395093511461022d57610116565b806306fdde031461011b578063095ea7b3146101395780630ac168a11461016957806318160ddd14610187575b600080fd5b61012361039b565b6040516101309190611328565b60405180910390f35b610153600480360381019061014e91906113e3565b61042d565b604051610160919061143e565b60405180910390f35b610171610450565b60405161017e9190611468565b60405180910390f35b61018f610456565b60405161019c9190611468565b60405180910390f35b6101bf60048036038101906101ba9190611483565b610460565b005b6101db60048036038101906101d691906114b0565b610518565b6040516101e8919061143e565b60405180910390f35b6101f9610547565b604051610206919061151f565b60405180910390f35b610217610550565b6040516102249190611468565b60405180910390f35b610247600480360381019061024291906113e3565b610578565b604051610254919061143e565b60405180910390f35b61027760048036038101906102729190611483565b6105af565b005b610293600480360381019061028e919061153a565b6105c3565b6040516102a09190611468565b60405180910390f35b6102c360048036038101906102be91906113e3565b61060b565b005b6102cd61062b565b005b6102d76106f6565b6040516102e49190611588565b60405180910390f35b6102f561071c565b6040516103029190611328565b60405180910390f35b610325600480360381019061032091906113e3565b6107ae565b604051610332919061143e565b60405180910390f35b610355600480360381019061035091906113e3565b610825565b604051610362919061143e565b60405180910390f35b610385600480360381019061038091906115a3565b610848565b6040516103929190611468565b60405180910390f35b6060600380546103aa90611612565b80601f01602080910402602001604051908101604052809291908181526020018280546103d690611612565b80156104235780601f106103f857610100808354040283529160200191610423565b820191906000526020600020905b81548152906001019060200180831161040657829003601f168201915b5050505050905090565b6000806104386108cf565b90506104458185856108d7565b600191505092915050565b60065481565b6000600254905090565b600560009054906101000a900473ffffffffffffffffffffffffffffffffffffffff1673ffffffffffffffffffffffffffffffffffffffff163373ffffffffffffffffffffffffffffffffffffffff16146104f0576040517f08c379a00000000000000000000000000000000000000000000000000000000081526004016104e7906116b5565b60405180910390fd5b6104f8610547565b600a6105049190611837565b8161050f9190611882565b60068190555050565b6000806105236108cf565b9050610530858285610aa0565b61053b858585610b2c565b60019150509392505050565b60006012905090565b60007f0000000000000000000000000000000000000000000000000000000000000000905090565b6000806105836108cf565b90506105a48185856105958589610848565b61059f91906118c4565b6108d7565b600191505092915050565b6105c06105ba6108cf565b82610da2565b50565b60008060008373ffffffffffffffffffffffffffffffffffffffff1673ffffffffffffffffffffffffffffffffffffffff168152602001908152602001600020549050919050565b61061d826106176108cf565b83610aa0565b6106278282610da2565b5050565b600560009054906101000a900473ffffffffffffffffffffffffffffffffffffffff1673ffffffffffffffffffffffffffffffffffffffff163373ffffffffffffffffffffffffffffffffffffffff16146106bb576040517f08c379a00000000000000000000000000000000000000000000000000000000081526004016106b2906116b5565b60405180910390fd5b600560009054906101000a900473ffffffffffffffffffffffffffffffffffffffff1673ffffffffffffffffffffffffffffffffffffffff16ff5b600560009054906101000a900473ffffffffffffffffffffffffffffffffffffffff1681565b60606004805461072b90611612565b80601f016020809104026020016040519081016040528092919081815260200182805461075790611612565b80156107a45780601f10610779576101008083540402835291602001916107a4565b820191906000526020600020905b81548152906001019060200180831161078757829003601f168201915b5050505050905090565b6000806107b96108cf565b905060006107c78286610848565b90508381101561080c576040517f08c379a00000000000000000000000000000000000000000000000000000000081526004016108039061196a565b60405180910390fd5b61081982868684036108d7565b60019250505092915050565b6000806108306108cf565b905061083d818585610b2c565b600191505092915050565b6000600160008473ffffffffffffffffffffffffffffffffffffffff1673ffffffffffffffffffffffffffffffffffffffff16815260200190815260200160002060008373ffffffffffffffffffffffffffffffffffffffff1673ffffffffffffffffffffffffffffffffffffffff16815260200190815260200160002054905092915050565b600033905090565b600073ffffffffffffffffffffffffffffffffffffffff168373ffffffffffffffffffffffffffffffffffffffff1603610946576040517f08c379a000000000000000000000000000000000000000000000000000000000815260040161093d906119fc565b60405180910390fd5b600073ffffffffffffffffffffffffffffffffffffffff168273ffffffffffffffffffffffffffffffffffffffff16036109b5576040517f08c379a00000000000000000000000000000000000000000000000000000000081526004016109ac90611a8e565b60405180910390fd5b80600160008573ffffffffffffffffffffffffffffffffffffffff1673ffffffffffffffffffffffffffffffffffffffff16815260200190815260200160002060008473ffffffffffffffffffffffffffffffffffffffff1673ffffffffffffffffffffffffffffffffffffffff168152602001908152602001600020819055508173ffffffffffffffffffffffffffffffffffffffff168373ffffffffffffffffffffffffffffffffffffffff167f8c5be1e5ebec7d5bd14f71427d1e84f3dd0314c0f7b2291e5b200ac8c7c3b92583604051610a939190611468565b60405180910390a3505050565b6000610aac8484610848565b90507fffffffffffffffffffffffffffffffffffffffffffffffffffffffffffffffff8114610b265781811015610b18576040517f08c379a0000000000000000000000000000000000000000000000000000000008152600401610b0f90611afa565b60405180910390fd5b610b2584848484036108d7565b5b50505050565b600073ffffffffffffffffffffffffffffffffffffffff168373ffffffffffffffffffffffffffffffffffffffff1603610b9b576040517f08c379a0000000000000000000000000000000000000000000000000000000008152600401610b9290611b8c565b60405180910390fd5b600073ffffffffffffffffffffffffffffffffffffffff168273ffffffffffffffffffffffffffffffffffffffff1603610c0a576040517f08c379a0000000000000000000000000000000000000000000000000000000008152600401610c0190611c1e565b60405180910390fd5b610c15838383610f6f565b60008060008573ffffffffffffffffffffffffffffffffffffffff1673ffffffffffffffffffffffffffffffffffffffff16815260200190815260200160002054905081811015610c9b576040517f08c379a0000000000000000000000000000000000000000000000000000000008152600401610c9290611cb0565b60405180910390fd5b8181036000808673ffffffffffffffffffffffffffffffffffffffff1673ffffffffffffffffffffffffffffffffffffffff16815260200190815260200160002081905550816000808573ffffffffffffffffffffffffffffffffffffffff1673ffffffffffffffffffffffffffffffffffffffff168152602001908152602001600020600082825401925050819055508273ffffffffffffffffffffffffffffffffffffffff168473ffffffffffffffffffffffffffffffffffffffff167fddf252ad1be2c89b69c2b068fc378daa952ba7f163c4a11628f55a4df523b3ef84604051610d899190611468565b60405180910390a3610d9c848484611056565b50505050565b600073ffffffffffffffffffffffffffffffffffffffff168273ffffffffffffffffffffffffffffffffffffffff1603610e11576040517f08c379a0000000000000000000000000000000000000000000000000000000008152600401610e0890611d42565b60405180910390fd5b610e1d82600083610f6f565b60008060008473ffffffffffffffffffffffffffffffffffffffff1673ffffffffffffffffffffffffffffffffffffffff16815260200190815260200160002054905081811015610ea3576040517f08c379a0000000000000000000000000000000000000000000000000000000008152600401610e9a90611dd4565b60405180910390fd5b8181036000808573ffffffffffffffffffffffffffffffffffffffff1673ffffffffffffffffffffffffffffffffffffffff1681526020019081526020016000208190555081600260008282540392505081905550600073ffffffffffffffffffffffffffffffffffffffff168373ffffffffffffffffffffffffffffffffffffffff167fddf252ad1be2c89b69c2b068fc378daa952ba7f163c4a11628f55a4df523b3ef84604051610f569190611468565b60405180910390a3610f6a83600084611056565b505050565b600073ffffffffffffffffffffffffffffffffffffffff168373ffffffffffffffffffffffffffffffffffffffff1614158015610fd857504173ffffffffffffffffffffffffffffffffffffffff168273ffffffffffffffffffffffffffffffffffffffff1614155b80156110115750600073ffffffffffffffffffffffffffffffffffffffff164173ffffffffffffffffffffffffffffffffffffffff1614155b80156110385750611020610550565b60065461102b610456565b61103591906118c4565b11155b156110465761104561105b565b5b611051838383611069565b505050565b505050565b6110674160065461106e565b565b505050565b611076610550565b8161107f610456565b61108991906118c4565b11156110ca576040517f08c379a00000000000000000000000000000000000000000000000000000000081526004016110c190611e40565b60405180910390fd5b6110d482826110d8565b5050565b6110e0610550565b816110e9610456565b6110f391906118c4565b1115611134576040517f08c379a000000000000000000000000000000000000000000000000000000000815260040161112b90611e40565b60405180910390fd5b61113e8282611142565b5050565b600073ffffffffffffffffffffffffffffffffffffffff168273ffffffffffffffffffffffffffffffffffffffff16036111b1576040517f08c379a00000000000000000000000000000000000000000000000000000000081526004016111a890611eac565b60405180910390fd5b6111bd60008383610f6f565b80600260008282546111cf91906118c4565b92505081905550806000808473ffffffffffffffffffffffffffffffffffffffff1673ffffffffffffffffffffffffffffffffffffffff168152602001908152602001600020600082825401925050819055508173ffffffffffffffffffffffffffffffffffffffff16600073ffffffffffffffffffffffffffffffffffffffff167fddf252ad1be2c89b69c2b068fc378daa952ba7f163c4a11628f55a4df523b3ef836040516112809190611468565b60405180910390a361129460008383611056565b5050565b600081519050919050565b600082825260208201905092915050565b60005b838110156112d25780820151818401526020810190506112b7565b60008484015250505050565b6000601f19601f8301169050919050565b60006112fa82611298565b61130481856112a3565b93506113148185602086016112b4565b61131d816112de565b840191505092915050565b6000602082019050818103600083015261134281846112ef565b905092915050565b600080fd5b600073ffffffffffffffffffffffffffffffffffffffff82169050919050565b600061137a8261134f565b9050919050565b61138a8161136f565b811461139557600080fd5b50565b6000813590506113a781611381565b92915050565b6000819050919050565b6113c0816113ad565b81146113cb57600080fd5b50565b6000813590506113dd816113b7565b92915050565b600080604083850312156113fa576113f961134a565b5b600061140885828601611398565b9250506020611419858286016113ce565b9150509250929050565b60008115159050919050565b61143881611423565b82525050565b6000602082019050611453600083018461142f565b92915050565b611462816113ad565b82525050565b600060208201905061147d6000830184611459565b92915050565b6000602082840312156114995761149861134a565b5b60006114a7848285016113ce565b91505092915050565b6000806000606084860312156114c9576114c861134a565b5b60006114d786828701611398565b93505060206114e886828701611398565b92505060406114f9868287016113ce565b9150509250925092565b600060ff82169050919050565b61151981611503565b82525050565b60006020820190506115346000830184611510565b92915050565b6000602082840312156115505761154f61134a565b5b600061155e84828501611398565b91505092915050565b60006115728261134f565b9050919050565b61158281611567565b82525050565b600060208201905061159d6000830184611579565b92915050565b600080604083850312156115ba576115b961134a565b5b60006115c885828601611398565b92505060206115d985828601611398565b9150509250929050565b7f4e487b7100000000000000000000000000000000000000000000000000000000600052602260045260246000fd5b6000600282049050600182168061162a57607f821691505b60208210810361163d5761163c6115e3565b5b50919050565b7f4f6e6c79206f776e65722063616e2063616c6c20746869732066756e6374696f60008201527f6e00000000000000000000000000000000000000000000000000000000000000602082015250565b600061169f6021836112a3565b91506116aa82611643565b604082019050919050565b600060208201905081810360008301526116ce81611692565b9050919050565b7f4e487b7100000000000000000000000000000000000000000000000000000000600052601160045260246000fd5b60008160011c9050919050565b6000808291508390505b600185111561175b57808604811115611737576117366116d5565b5b60018516156117465780820291505b808102905061175485611704565b945061171b565b94509492505050565b6000826117745760019050611830565b816117825760009050611830565b816001811461179857600281146117a2576117d1565b6001915050611830565b60ff8411156117b4576117b36116d5565b5b8360020a9150848211156117cb576117ca6116d5565b5b50611830565b5060208310610133831016604e8410600b84101617156118065782820a905083811115611801576118006116d5565b5b611830565b6118138484846001611711565b9250905081840481111561182a576118296116d5565b5b81810290505b9392505050565b6000611842826113ad565b915061184d83611503565b925061187a7fffffffffffffffffffffffffffffffffffffffffffffffffffffffffffffffff8484611764565b905092915050565b600061188d826113ad565b9150611898836113ad565b92508282026118a6816113ad565b915082820484148315176118bd576118bc6116d5565b5b5092915050565b60006118cf826113ad565b91506118da836113ad565b92508282019050808211156118f2576118f16116d5565b5b92915050565b7f45524332303a2064656372656173656420616c6c6f77616e63652062656c6f7760008201527f207a65726f000000000000000000000000000000000000000000000000000000602082015250565b60006119546025836112a3565b915061195f826118f8565b604082019050919050565b6000602082019050818103600083015261198381611947565b9050919050565b7f45524332303a20617070726f76652066726f6d20746865207a65726f2061646460008201527f7265737300000000000000000000000000000000000000000000000000000000602082015250565b60006119e66024836112a3565b91506119f18261198a565b604082019050919050565b60006020820190508181036000830152611a15816119d9565b9050919050565b7f45524332303a20617070726f766520746f20746865207a65726f20616464726560008201527f7373000000000000000000000000000000000000000000000000000000000000602082015250565b6000611a786022836112a3565b9150611a8382611a1c565b604082019050919050565b60006020820190508181036000830152611aa781611a6b565b9050919050565b7f45524332303a20696e73756666696369656e7420616c6c6f77616e6365000000600082015250565b6000611ae4601d836112a3565b9150611aef82611aae565b602082019050919050565b60006020820190508181036000830152611b1381611ad7565b9050919050565b7f45524332303a207472616e736665722066726f6d20746865207a65726f20616460008201527f6472657373000000000000000000000000000000000000000000000000000000602082015250565b6000611b766025836112a3565b9150611b8182611b1a565b604082019050919050565b60006020820190508181036000830152611ba581611b69565b9050919050565b7f45524332303a207472616e7366657220746f20746865207a65726f206164647260008201527f6573730000000000000000000000000000000000000000000000000000000000602082015250565b6000611c086023836112a3565b9150611c1382611bac565b604082019050919050565b60006020820190508181036000830152611c3781611bfb565b9050919050565b7f45524332303a207472616e7366657220616d6f756e742065786365656473206260008201527f616c616e63650000000000000000000000000000000000000000000000000000602082015250565b6000611c9a6026836112a3565b9150611ca582611c3e565b604082019050919050565b60006020820190508181036000830152611cc981611c8d565b9050919050565b7f45524332303a206275726e2066726f6d20746865207a65726f2061646472657360008201527f7300000000000000000000000000000000000000000000000000000000000000602082015250565b6000611d2c6021836112a3565b9150611d3782611cd0565b604082019050919050565b60006020820190508181036000830152611d5b81611d1f565b9050919050565b7f45524332303a206275726e20616d6f756e7420657863656564732062616c616e60008201527f6365000000000000000000000000000000000000000000000000000000000000602082015250565b6000611dbe6022836112a3565b9150611dc982611d62565b604082019050919050565b60006020820190508181036000830152611ded81611db1565b9050919050565b7f45524332304361707065643a2063617020657863656564656400000000000000600082015250565b6000611e2a6019836112a3565b9150611e3582611df4565b602082019050919050565b60006020820190508181036000830152611e5981611e1d565b9050919050565b7f45524332303a206d696e7420746f20746865207a65726f206164647265737300600082015250565b6000611e96601f836112a3565b9150611ea182611e60565b602082019050919050565b60006020820190508181036000830152611ec581611e89565b905091905056fea2646970667358221220f597296f8a037864cbd6268a2a0426c8144c9c5f6a97be43277c0677eada1c5764736f6c63430008180033",
  "linkReferences": {},
  "deployedLinkReferences": {}
}