{
  "_format": "hh-sol-artifact-1",
  "contractName": "Faucet",
  "sourceName": "contracts/Faucet.sol",
  "abi": [
    {
      "inputs": [
        {
          "internalType": "address",
          "name": "tokenAddress",
          "type": "address"
        }
      ],
      "stateMutability": "payable",
      "type": "constructor"
    },
    {
      "anonymous": false,
      "inputs": [
        {
          "indexed": true,
          "internalType": "address",
          "name": "from",
          "type": "address"
        },
        {
          "indexed": true,
          "internalType": "uint256",
          "name": "amount",
          "type": "uint256"
        }
      ],
      "name": "Deposit",
      "type": "event"
    },
    {
      "anonymous": false,
      "inputs": [
        {
          "indexed": true,
          "internalType": "address",
          "name": "to",
          "type": "address"
        },
        {
          "indexed": true,
          "internalType": "uint256",
          "name": "amount",
          "type": "uint256"
        }
      ],
      "name": "Withdrawal",
      "type": "event"
    },
    {
      "inputs": [],
      "name": "getBalance",
      "outputs": [
        {
          "internalType": "uint256",
          "name": "",
          "type": "uint256"
        }
      ],
      "stateMutability": "view",
      "type": "function"
    },
    {
      "inputs": [],
      "name": "lockTime",
      "outputs": [
        {
          "internalType": "uint256",
          "name": "",
          "type": "uint256"
        }
      ],
      "stateMutability": "view",
      "type": "function"
    },
    {
      "inputs": [
        {
          "internalType": "address",
          "name": "",
          "type": "address"
        }
      ],
      "name": "nextAccessTime",
      "outputs": [
        {
          "internalType": "uint256",
          "name": "",
          "type": "uint256"
        }
      ],
      "stateMutability": "view",
      "type": "function"
    },
    {
      "inputs": [],
      "name": "owner",
      "outputs": [
        {
          "internalType": "address payable",
          "name": "",
          "type": "address"
        }
      ],
      "stateMutability": "view",
      "type": "function"
    },
    {
      "inputs": [],
      "name": "requestTokens",
      "outputs": [],
      "stateMutability": "nonpayable",
      "type": "function"
    },
    {
      "inputs": [
        {
          "internalType": "uint256",
          "name": "amount",
          "type": "uint256"
        }
      ],
      "name": "setLockTime",
      "outputs": [],
      "stateMutability": "nonpayable",
      "type": "function"
    },
    {
      "inputs": [
        {
          "internalType": "uint256",
          "name": "amount",
          "type": "uint256"
        }
      ],
      "name": "setWithdrawAmount",
      "outputs": [],
      "stateMutability": "nonpayable",
      "type": "function"
    },
    {
      "inputs": [],
      "name": "token",
      "outputs": [
        {
          "internalType": "contract ERC20CappedBurnableToken",
          "name": "",
          "type": "address"
        }
      ],
      "stateMutability": "view",
      "type": "function"
    },
    {
      "inputs": [],
      "name": "withdrawal",
      "outputs": [],
      "stateMutability": "nonpayable",
      "type": "function"
    },
    {
      "inputs": [],
      "name": "withdrawalAmount",
      "outputs": [
        {
          "internalType": "uint256",
          "name": "",
          "type": "uint256"
        }
      ],
      "stateMutability": "view",
      "type": "function"
    },
    {
      "stateMutability": "payable",
      "type": "receive"
    }
  ],
  "bytecode": "0x6080604052678ac7230489e80000600255603c600355604051620011ba380380620011ba83398181016040528101906200003a91906200012c565b80600160006101000a81548173ffffffffffffffffffffffffffffffffffffffff021916908373ffffffffffffffffffffffffffffffffffffffff160217905550336000806101000a81548173ffffffffffffffffffffffffffffffffffffffff021916908373ffffffffffffffffffffffffffffffffffffffff160217905550506200015e565b600080fd5b600073ffffffffffffffffffffffffffffffffffffffff82169050919050565b6000620000f482620000c7565b9050919050565b6200010681620000e7565b81146200011257600080fd5b50565b6000815190506200012681620000fb565b92915050565b600060208284031215620001455762000144620000c2565b5b6000620001558482850162000115565b91505092915050565b61104c806200016e6000396000f3fe6080604052600436106100955760003560e01c8063ae04d45d11610059578063ae04d45d146101ba578063ceb04e29146101e3578063d4e932921461020c578063e6e268f414610223578063fc0c546a1461024e576100e0565b80630d668087146100e557806312065fe014610110578063359cf2b71461013b578063516fad0a146101525780638da5cb5b1461018f576100e0565b366100e057343373ffffffffffffffffffffffffffffffffffffffff167fe1fffcc4923d04b559f4d29a8bfc6cda04eb5b0d3c460751c2402c5c5cc9109c60405160405180910390a3005b600080fd5b3480156100f157600080fd5b506100fa610279565b6040516101079190610a64565b60405180910390f35b34801561011c57600080fd5b5061012561027f565b6040516101329190610a64565b60405180910390f35b34801561014757600080fd5b50610150610322565b005b34801561015e57600080fd5b5061017960048036038101906101749190610ae2565b6105e9565b6040516101869190610a64565b60405180910390f35b34801561019b57600080fd5b506101a4610601565b6040516101b19190610b30565b60405180910390f35b3480156101c657600080fd5b506101e160048036038101906101dc9190610b77565b610625565b005b3480156101ef57600080fd5b5061020a60048036038101906102059190610b77565b6106c9565b005b34801561021857600080fd5b50610221610774565b005b34801561022f57600080fd5b50610238610a1f565b6040516102459190610a64565b60405180910390f35b34801561025a57600080fd5b50610263610a25565b6040516102709190610c03565b60405180910390f35b60035481565b6000600160009054906101000a900473ffffffffffffffffffffffffffffffffffffffff1673ffffffffffffffffffffffffffffffffffffffff166370a08231306040518263ffffffff1660e01b81526004016102dc9190610c2d565b602060405180830381865afa1580156102f9573d6000803e3d6000fd5b505050506040513d601f19601f8201168201806040525081019061031d9190610c5d565b905090565b600073ffffffffffffffffffffffffffffffffffffffff163373ffffffffffffffffffffffffffffffffffffffff1603610391576040517f08c379a000000000000000000000000000000000000000000000000000000000815260040161038890610d0d565b60405180910390fd5b600254600160009054906101000a900473ffffffffffffffffffffffffffffffffffffffff1673ffffffffffffffffffffffffffffffffffffffff166370a08231306040518263ffffffff1660e01b81526004016103ef9190610c2d565b602060405180830381865afa15801561040c573d6000803e3d6000fd5b505050506040513d601f19601f820116820180604052508101906104309190610c5d565b1015610471576040517f08c379a000000000000000000000000000000000000000000000000000000000815260040161046890610d9f565b60405180910390fd5b600460003373ffffffffffffffffffffffffffffffffffffffff1673ffffffffffffffffffffffffffffffffffffffff168152602001908152602001600020544210156104f3576040517f08c379a00000000000000000000000000000000000000000000000000000000081526004016104ea90610e31565b60405180910390fd5b600354426105019190610e80565b600460003373ffffffffffffffffffffffffffffffffffffffff1673ffffffffffffffffffffffffffffffffffffffff16815260200190815260200160002081905550600160009054906101000a900473ffffffffffffffffffffffffffffffffffffffff1673ffffffffffffffffffffffffffffffffffffffff1663a9059cbb336002546040518363ffffffff1660e01b81526004016105a3929190610eb4565b6020604051808303816000875af11580156105c2573d6000803e3d6000fd5b505050506040513d601f19601f820116820180604052508101906105e69190610f15565b50565b60046020528060005260406000206000915090505481565b60008054906101000a900473ffffffffffffffffffffffffffffffffffffffff1681565b60008054906101000a900473ffffffffffffffffffffffffffffffffffffffff1673ffffffffffffffffffffffffffffffffffffffff163373ffffffffffffffffffffffffffffffffffffffff16146106b3576040517f08c379a00000000000000000000000000000000000000000000000000000000081526004016106aa90610fb4565b60405180910390fd5b603c816106c09190610fd4565b60038190555050565b60008054906101000a900473ffffffffffffffffffffffffffffffffffffffff1673ffffffffffffffffffffffffffffffffffffffff163373ffffffffffffffffffffffffffffffffffffffff1614610757576040517f08c379a000000000000000000000000000000000000000000000000000000000815260040161074e90610fb4565b60405180910390fd5b670de0b6b3a76400008161076b9190610fd4565b60028190555050565b60008054906101000a900473ffffffffffffffffffffffffffffffffffffffff1673ffffffffffffffffffffffffffffffffffffffff163373ffffffffffffffffffffffffffffffffffffffff1614610802576040517f08c379a00000000000000000000000000000000000000000000000000000000081526004016107f990610fb4565b60405180910390fd5b600160009054906101000a900473ffffffffffffffffffffffffffffffffffffffff1673ffffffffffffffffffffffffffffffffffffffff166370a08231306040518263ffffffff1660e01b815260040161085d9190610c2d565b602060405180830381865afa15801561087a573d6000803e3d6000fd5b505050506040513d601f19601f8201168201806040525081019061089e9190610c5d565b3373ffffffffffffffffffffffffffffffffffffffff167f7fcf532c15f0a6db0bd6d0e038bea71d30d808c7d98cb3bf7268a95bf5081b6560405160405180910390a3600160009054906101000a900473ffffffffffffffffffffffffffffffffffffffff1673ffffffffffffffffffffffffffffffffffffffff1663a9059cbb33600160009054906101000a900473ffffffffffffffffffffffffffffffffffffffff1673ffffffffffffffffffffffffffffffffffffffff166370a08231306040518263ffffffff1660e01b815260040161097b9190610c2d565b602060405180830381865afa158015610998573d6000803e3d6000fd5b505050506040513d601f19601f820116820180604052508101906109bc9190610c5d565b6040518363ffffffff1660e01b81526004016109d9929190610eb4565b6020604051808303816000875af11580156109f8573d6000803e3d6000fd5b505050506040513d601f19601f82011682018060405250810190610a1c9190610f15565b50565b60025481565b600160009054906101000a900473ffffffffffffffffffffffffffffffffffffffff1681565b6000819050919050565b610a5e81610a4b565b82525050565b6000602082019050610a796000830184610a55565b92915050565b600080fd5b600073ffffffffffffffffffffffffffffffffffffffff82169050919050565b6000610aaf82610a84565b9050919050565b610abf81610aa4565b8114610aca57600080fd5b50565b600081359050610adc81610ab6565b92915050565b600060208284031215610af857610af7610a7f565b5b6000610b0684828501610acd565b91505092915050565b6000610b1a82610a84565b9050919050565b610b2a81610b0f565b82525050565b6000602082019050610b456000830184610b21565b92915050565b610b5481610a4b565b8114610b5f57600080fd5b50565b600081359050610b7181610b4b565b92915050565b600060208284031215610b8d57610b8c610a7f565b5b6000610b9b84828501610b62565b91505092915050565b6000819050919050565b6000610bc9610bc4610bbf84610a84565b610ba4565b610a84565b9050919050565b6000610bdb82610bae565b9050919050565b6000610bed82610bd0565b9050919050565b610bfd81610be2565b82525050565b6000602082019050610c186000830184610bf4565b92915050565b610c2781610aa4565b82525050565b6000602082019050610c426000830184610c1e565b92915050565b600081519050610c5781610b4b565b92915050565b600060208284031215610c7357610c72610a7f565b5b6000610c8184828501610c48565b91505092915050565b600082825260208201905092915050565b7f52657175657374206d757374206e6f74206f726967696e6174652066726f6d2060008201527f61207a65726f206163636f756e74000000000000000000000000000000000000602082015250565b6000610cf7602e83610c8a565b9150610d0282610c9b565b604082019050919050565b60006020820190508181036000830152610d2681610cea565b9050919050565b7f496e73756666696369656e742062616c616e636520696e20666175636574206660008201527f6f72207265717565737400000000000000000000000000000000000000000000602082015250565b6000610d89602a83610c8a565b9150610d9482610d2d565b604082019050919050565b60006020820190508181036000830152610db881610d7c565b9050919050565b7f496e73756666696369656e742074696d6520686173207061737365642073696e60008201527f6365206c61737420726571756573740000000000000000000000000000000000602082015250565b6000610e1b602f83610c8a565b9150610e2682610dbf565b604082019050919050565b60006020820190508181036000830152610e4a81610e0e565b9050919050565b7f4e487b7100000000000000000000000000000000000000000000000000000000600052601160045260246000fd5b6000610e8b82610a4b565b9150610e9683610a4b565b9250828201905080821115610eae57610ead610e51565b5b92915050565b6000604082019050610ec96000830185610c1e565b610ed66020830184610a55565b9392505050565b60008115159050919050565b610ef281610edd565b8114610efd57600080fd5b50565b600081519050610f0f81610ee9565b92915050565b600060208284031215610f2b57610f2a610a7f565b5b6000610f3984828501610f00565b91505092915050565b7f4f6e6c7920636f6e7472616374206f776e65722063616e2063616c6c2074686960008201527f732066756e6374696f6e00000000000000000000000000000000000000000000602082015250565b6000610f9e602a83610c8a565b9150610fa982610f42565b604082019050919050565b60006020820190508181036000830152610fcd81610f91565b9050919050565b6000610fdf82610a4b565b9150610fea83610a4b565b9250828202610ff881610a4b565b9150828204841483151761100f5761100e610e51565b5b509291505056fea2646970667358221220b375b6fc3c8d9e7c090f3a9d580498ffff0ef78fac26d2d372e78ae5fc45fb8164736f6c63430008180033",
  "linkReferences": {},
  "deployedLinkReferences": {}
}